:1000000016EF00F0EA6A0A0EE96EEF500EE0010EFC
:10001000016E006A002EFED7012EFBD74A0E006E3D
:10002000002EFED700D0EF2EF2D7000CF86AD09E3B
:10003000EA6AE96AC180C182C184C196C19CC28C4E
:10004000C28EC19EC280C190C192C194C196000E61
:10005000016EC250C70B0110C26EC284C2B4FED77B
:10006000C450086A076A066A056E93908A80949461
:100070008B8406C009F0092A0906D8B404D0FF0E03
:100080000A6EC0DFF9D705C00AF0BCDF93908A90F2
:1000900094948B9406C009F0092A0906D8B404D0B8
:1000A000FF0E0A6EAFDFF9D705C00AF0ABDF9392FF
:1000B0008A8294948B8406C009F0092A0906D8B470
:1000C00004D0FF0E0A6E9EDFF9D705C00AF09ADF52
:1000D00093928A9294948B9406C009F0092A090697
:1000E000D8B404D0FF0E0A6E8DDFF9D705C00AF030
:1000F00089DF93948A8494948B8406C009F0092A3A
:100100000906D8B404D0FF0E0A6E7CDFF9D705C00B
:100110000AF078DF93948A9494948B9406C009F043
:10012000092A0906D8B404D0FF0E0A6E6BDFF9D78E
:1001300005C00AF067DF93968A8694948B8406C084
:1001400009F0092A0906D8B404D0FF0E0A6E5ADF56
:10015000F9D705C00AF056DF93968A9694948B944B
:1001600006C009F0092A0906D8B404D0FF0E0A6EA9
:0E01700049DFF9D705C00AF045DF6FD7FFD78A
:020000040030CA
:0E00000000270D0E000101000FC00FE00F40A1
:00000001FF
;PIC18F252
;CRC=97BD  CREATED="15-maj-13 14:54"
