:0400000074EF00F0A9
:08000800046ED8CF05F0E0CF33
:1000100006F00001E9CF0CF0EACF07F0E1CF08F0DD
:10002000E2CF09F0D9CF0AF0DACF0BF0F3CF12F01C
:10003000F4CF13F0FACF14F0F5CF15F0F6CF16F099
:10004000F7CF17F000C00EF001C00FF002C010F0A3
:1000500003C011F0F2AA30EF00F0F2B46CEF00F040
:100060000EC000F00FC001F010C002F011C003F08C
:100070000CC0E9FF07C0EAFF078E08C0E1FF09C016
:10008000E2FF0AC0D9FF0BC0DAFF12C0F3FF13C0B2
:10009000F4FF14C0FAFF15C0F5FF16C0F6FF17C035
:1000A000F7FF045006C0E0FF05C0D8FF1000EA6A61
:1000B000190EE96EEF500EE0010E016E006A002E7F
:1000C000FED7012EFBD74A0E006E002EFED700D0C1
:1000D000EF2EF2D771EF00F093908A700A0E196E2E
:1000E000E6D7F29430EF00F0F86AD09E078EEA6A05
:1000F000E96AC180C182C184C196C190C182C184B4
:08010000C186C50ED56EFFD7C4
:020000040030CA
:0E00000000270D0E000101000FC00FE00F40A1
:00000001FF
;PIC18F252
;CRC=1862  CREATED="16-maj-13 12:56"
