:10000000000001308A0061290A108A100A11820753
:1000100028340C3401340634CA34ED36791065398D
:10002000A0337532000026308400831300080319C2
:1000300027280130F800F701F70B1C28F80B1B28C4
:100040004A30F700F70B22282528800B19280800D2
:100050002D182C2808102D28081483160810831238
:10006000AD18342888103528881483168810831218
:100070002D193C2808113D280815831608118312F4
:10008000AD19442888114528881583168811000069
:100090008510831285144C288316851083128510D1
:1000A0000800AE01831685108312851400008316A4
:1000B000081483122E1008182E1483168814831225
:1000C000AE108818AE148316081583122E11081965
:1000D0002E15831688158312AE118819AE15831656
:1000E0008510831285102E08F800080083168511EC
:1000F0008312851183160511831205150000512006
:100100007808AD0051207808AC002D0EF700F030D3
:10011000F70577082C04F8007808AC00AC1B7A28A7
:10012000AA080319982883168511831285159C281F
:100130008316851183128511000083160511831221
:100140000511000083168510831285102B0EAC005C
:100150000F30AC052C08AD0028202B080F39AC005F
:10016000AD0028200800831685118312851183169F
:1001700005118312051183168510831285100F3027
:10018000A6001320A2012208023C031CCF28033042
:10019000AD0028200530A6001320A20AC328023093
:1001A000AD002820A2012208033C031CE0282208FD
:1001B0000420A300AA012308AB007620A20AD328BA
:1001C0008A110A126E2925080C3A0319EE28063AFC
:1001D0000319F628023A03190D291229AA01013040
:1001E000AB0076200230A600132018290130A600AB
:1001F0000230A700270BFD2800294030A800012964
:10020000A80101302602A80728088038A900AA0101
:100210002908AB00762000001829AA011030AB0095
:10022000762018290130AA002508AB00762018296D
:100230000800831603178C170C14000000008312AB
:100240000C087F3903195D290313A20003170D0859
:100250000313A30003170F080313A4002208A5002B
:10026000E320230803178D000313240803178F00CE
:1002700083168C170C140000000083120C0D0E0D59
:100280007F3903195D290313A20003170D08031317
:10029000A30003170F080313A4002208A500E320FE
:1002A000230803178D000313240803178F008D0AFA
:1002B00003198F0A03131929031703138A110A124A
:1002C0007529840183131F30830583161F149F141F
:1002D0001F159F118312A001A101B3280C30031731
:0E02E0008D0000308F0003131929752976292F
:02400E003A3541
:00000001FF
;PIC16F877
;CRC=6CDD  CREATED="17-maj-13 09:29"
