:1000000016EF00F0EA6A090EE96EEF500EE0010EFD
:10001000016E006A002EFED7012EFBD74A0E006E3D
:10002000002EFED700D0EF2EF2D7000CF86AD09E3B
:10003000EA6AE96A046A066A320E056E076AC180D6
:10004000C182C184C196928880B802D0010E046E2C
:10005000928880A809D0042C07D0046A075203E1D3
:10006000010E076E01D0076A072C6BD093908A802F
:1000700006C008F0082A0806D8B404D0FF0E096E9E
:10008000C1DFF9D705C009F0BDDF93908A9006C0A3
:1000900008F0082A0806D8B404D0FF0E096EB2DFB3
:1000A000F9D705C009F0AEDF93928A8206C008F046
:1000B000082A0806D8B404D0FF0E096EA3DFF9D7CA
:1000C00005C009F09FDF93928A9206C008F0082AC3
:1000D0000806D8B404D0FF0E096E94DFF9D705C026
:1000E00009F090DF93948A8406C008F0082A080675
:1000F000D8B404D0FF0E096E85DFF9D705C009F02A
:1001000081DF93948A9493968A8606C008F0082A21
:100110000806D8B404D0FF0E096E74DFF9D705C005
:1001200009F070DF93968A9606C008F0082A080640
:10013000D8B404D0FF0E096E65DFF9D705C009F009
:0601400061DF81D7FFD74B
:020000040030CA
:0E00000000270D0E000101000FC00FE00F40A1
:00000001FF
;PIC18F252
;CRC=78F2  CREATED="15-maj-13 13:54"
