:1000000078EF00F0257520202D20202575200A0D81
:1000100000000A50016A095C03E209C000F00CD03C
:10002000006A080E0B6E093600360A50005CD8B024
:10003000006E01360B2EF7D7000C015007C009F0F7
:10004000640E0A6EE6DF00C007F00150300E07E1D3
:1000500008A20DD008B60BD008B8200E03D0089621
:1000600008980880012601509EA8FED7AD6E07C0F3
:1000700009F00A0E0A6ECDDF00C007F00150300E05
:1000800006E108B609D008A007D008B8200E01265E
:1000900001509EA8FED7AD6E300E072607509EA8D1
:1000A000FED7AD6E000C0900F6CF08F0F7CF09F0CF
:1000B000F5509EA8FED7AD6E08C0F6FF09C0F7FF49
:1000C000072EF1D7ABEF00F0EA6A080EE96EEF50A9
:1000D0000DE0060E016E006A002EFED7012EFBD742
:1000E0007B0E006E002EFED7EF2EF3D7C1EF00F08F
:1000F000F86AD09EEA6AE96A810EAF6EA60EAC6E0F
:10010000900EAB6E046AC180C182C184C196C19C4D
:10011000C28CC28EC19EC280C190C192C194C19650
:10012000000E016EC250C70B0110C26EC284C2B471
:10013000FED7C3CF06F0046A0450090826E306C0C0
:1001400007F01B0E086E79DF060EF66E000EF76ED6
:10015000050E076EA8D705C007F01B0E086E6DDFF1
:10016000200E9EA8FED7AD6E0A0E9EA8FED7AD6EDD
:100170000D0E9EA8FED7AD6E020E076E960E086E8F
:10018000A3D7072EFBD7042AD7D7046A045009083F
:1001900010E39EAA04D09EAAFED7AECF05F005506C
:1001A000310803E393908A8002D093908A90042AC6
:0601B000EDD7BCD7FFD71C
:020000040030CA
:0E00000000270D0E000101000FC00FE00F40A1
:00000001FF
;PIC18F252
;CRC=ADD9  CREATED="21-maj-13 14:20"
