:10000000000000308A00C228A53A20102D10A0124E
:1000100075108A0600132808F80125020318132812
:100020002508F7001F28F7010830A700A50DF70DD8
:10003000260877020318F700F80DA70B162808000A
:1000400078082308A5006430A6000B207708A300D9
:1000500078083030031D3328A41C3B28A4193B2802
:10006000241A20303628A41124122414F807780802
:100070000C1E382899002308A5000A30A6000B2082
:100080007708A30078083030031D4C28A4195128A4
:10009000241C5128241A2030F80778080C1E4E28FA
:1000A00099003030A30723080C1E5428990008003B
:1000B000831603178C170C140000000003188828FF
:1000C00083120C087F390313A40003170D080313D0
:1000D000A50003170F080313A60024080C1E6E28A2
:1000E0009900250803178D000313260803178F00B6
:1000F00083168C170C140000000083120313A30B4B
:1001000082288528831603178828A82883160317B2
:1001100083120C0D0E0D7F390313A40003170D0875
:100120000313A50003170F080313A60024080C1ED1
:1001300097289900250803178D0003132608031735
:100140008F008D0A03198F0A03100313A30B58287D
:100150008A110A120229243084008313000803192B
:10016000BF280130F800F701F70BB428F80BB328CB
:100170004A30F700F70BBA28BD28800BB1288A1146
:100180000A121829840183131F308305193083163E
:100190009900A6309800903083129800A001831631
:1001A0001F149F141F159F1183121F179F1783166B
:1001B0009F1383121F1483161F109F101F119F116E
:1001C0000030F80083121F08C73978049F001F15FC
:1001D0001F19E82883161E088312A200A001200818
:1001E000093C031C1C292208A3001B30A40020206A
:1001F000053003178D0000308F0003100530031306
:10020000A30058282108A3001B30A4002020203080
:100210000C1E082999000A300C1E0C2999000D307B
:100220000C1E102999000230A3009630A400AB28C0
:10023000A30B1529A00AEF28A0012008093C031CE4
:1002400036298C1E27298C1E23291A08A100210873
:10025000313C031C302983160610831206143429FE
:100260008316061083120610A00A1D29E7283729D5
:02400E003A3541
:00000001FF
;PIC16F877
;CRC=2269  CREATED="21-maj-13 14:08"
