:1000000066EF00F049204C4F56452054454B25756E
:100010000A0D00000900F6CF07F0F7CF08F0F55001
:100020009EA8FED7AD6E07C0F6FF08C0F7FF062EEC
:10003000F1D77DEF00F00950016A085C03E208C0C7
:1000400000F00CD0006A080E0A6E0836003609501F
:10005000005CD8B0006E01360A2EF7D7000C0150B4
:1000600006C008F0640E096EE6DF00C006F001501D
:10007000300E07E107A20DD007B60BD007B8200E4F
:1000800003D0079607980780012601509EA8FED747
:10009000AD6E06C008F00A0E096ECDDF00C006F096
:1000A0000150300E06E107B609D007A007D007B807
:1000B000200E012601509EA8FED7AD6E300E0626FA
:1000C00006509EA8FED7AD6E82EF00F0F86AD09E73
:1000D000EA6AE96A190EAF6EA60EAC6E900EAB6EB0
:1000E000C180C182C184C196670E056E040EF66E92
:1000F000000EF76E0A0E066E8DD705C006F01B0EB9
:10010000076EADD70A0E9EA8FED7AD6E0D0E9EA847
:08011000FED7AD6EEBD7FFD75F
:020000040030CA
:0E00000000270D0E000101000FC00FE00F40A1
:00000001FF
;PIC18F252
;CRC=2D02  CREATED="16-maj-13 10:54"
