:1000000079EF00F0257520202D20202575200A0D80
:1000100000000A50016A095C03E209C000F00CD03C
:10002000006A080E0B6E093600360A50005CD8B024
:10003000006E01360B2EF7D7000C015007C009F0F7
:10004000640E0A6EE6DF00C007F00150300E07E1D3
:1000500008A20DD008B60BD008B8200E03D0089621
:1000600008980880012601509EA8FED7AD6E07C0F3
:1000700009F00A0E0A6ECDDF00C007F00150300E05
:1000800006E108B609D008A007D008B8200E01265E
:1000900001509EA8FED7AD6E300E072607509EA8D1
:1000A000FED7AD6E000C0900F6CF08F0F7CF09F0CF
:1000B000F5509EA8FED7AD6E08C0F6FF09C0F7FF49
:1000C000072EF1D7ACEF00F0EA6A080EE96EEF50A8
:1000D0000EE0010E016E006A002EFED7012EFBD746
:1000E0004A0E006E002EFED700D0EF2EF2D7C2EFE0
:1000F00000F0F86AD09EEA6AE96A190EAF6EA60EA1
:10010000AC6E900EAB6E046AC180C182C184C19690
:10011000C19CC28CC28EC19EC280C190C192C1944A
:10012000C196000E016EC250C70B0110C26EC28490
:10013000C2B4FED7C3CF06F0046A0450090826E310
:1001400006C007F01B0E086E78DF060EF66E000E76
:10015000F76E050E076EA7D705C007F01B0E086ED9
:100160006CDF200E9EA8FED7AD6E0A0E9EA8FED7AD
:10017000AD6E0D0E9EA8FED7AD6E020E076E960EEA
:10018000086EA2D7072EFBD7042AD7D7046A0450DB
:10019000090810E39EAA04D09EAAFED7AECF05F0B0
:1001A0000550310803E393908A8002D093908A909F
:0801B000042AEDD7BCD7FFD7EC
:020000040030CA
:0E00000000070D0E000101000FC00FE00F40C1
:00000001FF
;PIC18F252
;CRC=7E8D  CREATED="21-maj-13 14:43"
