:1000000044EF00F0EA6A060EE96EEF500EE0010ED2
:10001000016E006A002EFED7012EFBD74A0E006E3D
:10002000002EFED700D0EF2EF2D7000C065202E1D0
:100030008A9001D08A809390075202E18A9201D07F
:100040008A829392085202E18A9401D08A8493941E
:10005000095202E18A9601D08A869396000C010E1D
:10006000066E062C0DD0928880B802D0010E046E68
:10007000928880A804D0042C02D0046A066AF1D7C2
:10008000010E016EB6EF00F0F86AD09EEA6AE96AE6
:10009000046A040E056EC180C182C184C196F2CF8C
:1000A00006F0F29E140EA96EA69CA69EA680A850ED
:1000B00006BEF28E056E640E066EA4DF055205E1E3
:1000C000066A076A086A096AB1DF052C06D0010EC4
:1000D000066E076A086A096AA9DF0550020806E188
:1000E000066A010E076E086A096AA0DF0550030858
:1000F00006E1010E066E076E086A096A97DF055071
:10010000040806E1066A076A010E086E096A8EDFB6
:100110000550050806E1010E066E076A086E096AB9
:1001200085DF0550060806E1066A010E076E086EB7
:10013000096A7CDF0550070806E1010E066E076EAE
:10014000086E096A73DF0550080806E1066A076A47
:10015000086A010E096E6ADF0550080806E2056AA2
:10016000066A076A086A096A61DF79D701500526BD
:10017000140EA96E05C0A8FFA69CA69EA684F250E8
:10018000006EF29E0F01550EA76EAA0EA76EA682F4
:10019000A6B2FED7A6940050F212640E066E0001BD
:0601A00031DF7DD7FFD71F
:020000040030CA
:0E00000000270D0E000101000FC00FE00F40A1
:00000001FF
;PIC18F252
;CRC=C1A1  CREATED="21-maj-13 13:27"
