:1000000061EF00F00A50016A095C03E209C000F0E8
:100010000CD0006A080E0B6E093600360A50005CE0
:10002000D8B0006E01360B2EF7D7000C015007C078
:1000300009F0640E0A6EE6DF00C007F00150300ED2
:1000400007E108A20DD008B60BD008B8200E03D0E7
:10005000089608980880012601509EA8FED7AD6E2C
:1000600007C009F00A0E0A6ECDDF00C007F001508C
:10007000300E06E108B609D008A007D008B8200E57
:10008000012601509EA8FED7AD6E300E0726075000
:100090009EA8FED7AD6E8DEF00F0EA6A080EE96EFD
:1000A000EF500EE0010E016E006A002EFED7012E09
:1000B000FBD74A0E006E002EFED700D0EF2EF2D7EF
:1000C000000CF86AD09EEA6AE96A190EAF6EA60EB5
:1000D000AC6E900EAB6E046AC180C182C184C196C1
:1000E000C19CC28CC28EC19EC280C190C192C1947B
:1000F000C196000E016EC250C70B0110C26EC284C1
:10010000C2B4FED7C3CF06F0046A0450090816E350
:1001100006C007F01B0E086E89D70A0E9EA8FED7F0
:10012000AD6E0D0E9EA8FED7AD6E020E076E960E3A
:10013000086EB3DF072EFBD7042AE7D7046A045002
:10014000090808E39EAA04D09EAAFED7AECF05F008
:10015000042AF5D794948B7405C008F09EDF94941C
:100160008B7405C008F099DF94948B7405C008F077
:1001700094DF94948B7405C008F08FDF94948B7493
:0A01800005C008F08ADFBBD7FFD7E7
:020000040030CA
:0E00000000270D0E000101000FC00FE00F40A1
:00000001FF
;PIC18F252
;CRC=E91A  CREATED="22-maj-13 12:53"
